:020000040000FA
:1000000098150020B1020000B9020000BB020000F8
:10001000BD020000BF020000C1020000000000009D
:10002000000000000000000000000000C30200000B
:10003000C502000000000000C70200006579000052
:10004000CB020000CD020000CF020000D102000070
:10005000D3020000297D0000DD7D0000D9020000F0
:10006000DB020000DD020000DF020000E102000010
:10007000E3020000E5020000E7020000E9020000E0
:10008000EB020000ED020000EF020000157A000014
:10009000F3020000897A0000F7020000F902000074
:1000A000FB020000FD020000FF020000010300004F
:1000B000030300000503000007030000090300001C
:1000C0000B0300000D0300000F03000011030000EC
:1000D00013030000150300001703000019030000BC
:1000E0001B0300001D030000000000001F030000B0
:1000F0002103000023030000250300002703000064
:10010000290300002B0300002D0300002F03000033
:100110000000000000000000310300003303000075
:10012000350300003703000039030000297F000079
:100130003D0300003F0300004103000043030000B3
:1001400000000000000000000000000000000000AF
:100150004503000047030000490300004B03000073
:10016000000000000000000000000000000000008F
:10017000000000000000000000000000000000007F
:10018000000000000000000000000000000000006F
:10019000000000000000000000000000000000005F
:1001A000000000000000000000000000000000004F
:1001B0004D0300004F0300005103000053030000F3
:1001C0005503000057030000590300005B030000C3
:1001D0005D0300005F030000610300006303000093
:1001E00065030000670300006903000000000000D1
:1001F000000000006B0300006D0300006F030000AF
:100200007103000073030000000000000000000004
:100210007503000077030000790300007B030000F2
:100220007D0300007F0300008103000083030000C2
:100230008503000087030000890300008B03000092
:100240008D0300008F030000910300009303000062
:100250009503000097030000990300009B03000032
:100260009D0300009F030000A1030000DFF80CD0F5
:1002700000F05CFB0048004789A6000098150020AC
:10028000EFF3108072B67047EFF310807047EFF312
:10029000108062B6704730BF704780F31188704796
:1002A000EFF31180704700000138FDD17047000066
:1002B0003C4880473C480047FEE7FEE7FEE7FEE794
:1002C000FEE7FEE7FEE7FEE7FEE7FEE7FEE7FEE706
:1002D000FEE7FEE7FEE7FEE7FEE7FEE7FEE7FEE7F6
:1002E000FEE7FEE7FEE7FEE7FEE7FEE7FEE7FEE7E6
:1002F000FEE7FEE7FEE7FEE7FEE7FEE7FEE7FEE7D6
:10030000FEE7FEE7FEE7FEE7FEE7FEE7FEE7FEE7C5
:10031000FEE7FEE7FEE7FEE7FEE7FEE7FEE7FEE7B5
:10032000FEE7FEE7FEE7FEE7FEE7FEE7FEE7FEE7A5
:10033000FEE7FEE7FEE7FEE7FEE7FEE7FEE7FEE795
:10034000FEE7FEE7FEE7FEE7FEE7FEE7FEE7FEE785
:10035000FEE7FEE7FEE7FEE7FEE7FEE7FEE7FEE775
:10036000FEE7FEE7FEE7FEE7FEE7FEE7FEE7FEE765
:10037000FEE7FEE7FEE7FEE7FEE7FEE7FEE7FEE755
:10038000FEE7FEE7FEE7FEE7FEE7FEE7FEE7FEE745
:10039000FEE7FEE7FEE7FEE7FEE7FEE7FEE7FEE735
:1003A000FEE700007D7900006D020000D2B201E09E
:1003B00000F8012B491EFBD270470022F6E710B56A
:1003C00013460A4604461946FFF7F0FF204610BDC3
:1003D0002DE9FE4F804681EA0300C00F0C460090D5
:1003E00021F0004123F00045B8EB0200A94105D2FD
:1003F0004046214690461C460B46024623F00040EC
:10040000104347D0270DC7F30A00C3F30A510290E7
:10041000401A019040286BDAC3F3130040F4801BAC
:100420000098924620B10023D2EB030A63EB0B0B3A
:1004300001985946C0F14002504600F0C2F9064604
:100440000D4650465946019A00F0CAF910EB0800D3
:100450006141002487EA115284EAE7731A4340D0CD
:10046000009A62B3019A012A4FEA075215DC001B79
:1004700061EB02014FF0004202EA0752CDE900426F
:10048000001C41F5801132462B4600F001FA03B002
:10049000BDE8F08F40462146F9E7001B61EB020101
:1004A000001C41F5801300185B412018A2F50017CD
:1004B00047EB030140EAD570B6196D4111E06D08B4
:1004C0004FEA360645EAC0754FEA0752001B61EB5A
:1004D0000201001C41F5801149084FEA3000001963
:1004E000514132462B4603B0BDE8F04F00F0C1B990
:1004F0000098012240000023D0EB020263EBE0737E
:10050000009821464FEAE074B8EB000061EB04016B
:10051000E9E783F000435BE781F0004158E72DE90C
:10052000FE4F81EA030404F0004421F000410094EE
:100530004FF0000B23F0004350EA01045ED052EA72
:1005400003045BD0C3F30A54C1F30A552C44A4F24C
:10055000F3340194A0FB0254C1F3130141F4801160
:10056000C3F3130343F4801301FB024400FB034E67
:10057000840A970A44EA815447EA8357A4FB076830
:1005800002958D0A05FB07854FEA932C04FB0C545A
:100590002705029D4FEA065847EA1637B5EB0805CE
:1005A0006EEB070C870E920E47EA811742EA831220
:1005B000A7FB0201B6EB0B0164EB00042B0D43EA31
:1005C0000C335E1844EB1C50DA465146E7FB02013F
:1005D000C5F313044FEA0B3343EA14534FEA0432D2
:1005E000019C43EA0603A4F10C040294009CCDE9AB
:1005F00000B400F04DF903B0BDE8F08F00200146D3
:10060000F9E72DE9F04D81EA030404F0004B21F0F5
:10061000004514464FF0000A23F0004150EA05025D
:1006200020D054EA01021DD0C5F30A570246C5F393
:100630001303C1F31300C1F30A5640F4801543F4C9
:100640008013A7EB0608101BD64608F2FD3873EBA3
:10065000050002D308F1010801E092185B41B8F1EE
:10066000000F03DA00200146BDE8F08D00204FF4B2
:100670008011064684460EE0171B73EB050705D371
:10068000121B63EB050306434CEA010C49084FEAD1
:10069000300092185B4150EA0107EDD152EA0300A5
:1006A00012D082EA040083EA0501084305D0101B3A
:1006B000AB4106D20122002306E000224FF00043A6
:1006C00002E06FF0010253101AEB06004CEB0851E8
:1006D00010EB0A0041EB0B01BDE8F04D00F0C9B88A
:1006E0000EB5C10F80EAE0700844CA07002140F24D
:1006F00033438DE80E000A460B4600F0C9F803B0FC
:1007000000BD00F0004230F000400AD0C10D01F5FC
:100710006071C0F3160042EA0151C208400711435C
:10072000704700200146704701F0004330B421F0CB
:10073000004150EA010206D00A0DA2F56072C1F331
:100740001301002A02DC30BC00207047440F44EA49
:10075000C104C100E01830BC00EBC25000F052B838
:100760002DE9F05F0546002092469B4688460646E6
:10077000814640241BE0284641464746224600F079
:10078000E7F853465A46C01A914110D3114618460D
:10079000224600F016F82D1A67EB01084F46224654
:1007A0000120002100F00DF817EB00094E41201E3A
:1007B000A4F10104DFDC484631462A464346BDE841
:1007C000F09F202A04DB203A00FA02F10020704753
:1007D0009140C2F1200320FA03F31943904070477F
:1007E000202A06DBCB17203A41FA02F043EAE073F5
:1007F00006E041FA02F3D040C2F1200291400843E2
:10080000194670470029A8BF7047401C490008BF1F
:1008100020F00100704710B4B0FA80FC00FA0CF030
:1008200050EA010404BF10BC704749B1CCF1200468
:1008300021FA04F411FA0CF118BF012121430843F5
:10084000A3EB0C01CB1D4FEA00614FEA102042BF21
:10085000002010BC704700EBC35010440029A4BF17
:1008600010BC7047401C490008BF20F0010010BCBC
:10087000704710B5141E73F1000408DA401C41F1F2
:10088000000192185B411A4301D120F0010010BD14
:100890002DE9F04D92469B4611B1B1FA81F202E08A
:1008A000B0FA80F220329046FFF78BFF04460F46E5
:1008B00040EA0A0041EA0B0153465A46084313D066
:1008C000114653EA010019D0C8F14002504600F029
:1008D0003FF805460E46504659464246FFF771FF1F
:1008E000084305D0012004E020463946BDE8F08DDC
:1008F0000020054346EAE0762C4337430A98630517
:10090000E40AA0EB08000022FD0A44EA47540A303A
:1009100002D500200146E9E7010510196941DDE92A
:10092000084500196941BDE8F04DA2E7064C074DA6
:1009300006E0E06840F0010394E8070098471034AF
:10094000AC42F6D3FFF796FC20B6000040B600009C
:10095000202A04DB203A21FA02F00021704721FA14
:1009600002F3D040C2F1200291400843194670477B
:100970002DE9F04D00231A461B1A8A4103DB0020A3
:100980000146BDE8F08DC1F30A52C1F3130141F4F1
:1009900080154FF0000BD10702D100186D41521E97
:1009A0000027044640F2FF11384601EB620A3E463A
:1009B0008046024600204FF48011FFF7C9FFC2199C
:1009C0007141BB1846EB0100B4EB030C75EB000C56
:1009D00004D3E41A65EB000517460E46241908F106
:1009E00001006D4180463428E3DDF91946EB06002D
:1009F000091BA84103D24FF0FF32134601E0002249
:100A000013461BEB070046EB0A51BDE8F04DFFF71C
:100A100030BF70B58C1810F8015B15F0070301D1D9
:100A200010F8013B2A1106D110F8012B03E010F851
:100A3000016B01F8016B5B1EF9D12B0705D4002374
:100A4000521E0DD401F8013BFAE710F8013BCB1A16
:100A5000921C03E013F8015B01F8015B521EF9D50B
:100A6000A142D8D3002070BD70B52DED108B84B09D
:100A7000B0EE408AF0EE60EAB0EE41FAF0EE61FAD4
:100A8000F0EE429AF0EE628AB0EE439AF0EE63DA4C
:100A9000B0EE44AAF0EE64AA04460D4616469FED59
:100AA000FE0A28EE000AF3EE040A20EE200AB0EE59
:100AB00040EA6DEEAD0A4AEE0A0A4AEEAA0AB0EE24
:100AC000600A0AF0ABF8F54880ED000A90ED000AE4
:100AD000B5EEC00AF1EE10FA2ED0D0ED000A8DEE80
:100AE000A00AEF48D0ED000A70EE600A90ED000A0F
:100AF0000EEE200A80ED000AE848D0ED000A8AEEEA
:100B0000200AE748D0ED010A70EE600A90ED010A74
:100B10000EEE200A80ED010AE048D0ED000A8AEED0
:100B2000A00ADF48D0ED020A70EE600A90ED020ADA
:100B30000EEE200A80ED020ADA4AD949DA480AF0B4
:100B4000E9F8D848D0ED000A60EEA00A90ED011A4D
:100B5000D0ED011A41EE210AB0EE600A0AF05EF80B
:100B6000D24880ED000ACF4890ED000AB5EEC00AE9
:100B7000F1EE10FA36D090ED010AB5EEC00AF1EEB2
:100B800010FA2FD090ED020AB5EEC00AF1EE10FA7D
:100B900028D0C64890ED000AB5EEC00AF1EE10FA72
:100BA00020D0C04890ED000AC048D0ED000A80EE89
:100BB000201AB0EE41BABB4890ED010ABB48D0ED17
:100BC000000A80EE201AF0EE41BAF0EE4B0AB0EEC9
:100BD0006B0A08F0D9FDDFEDB60A20EE200AB54811
:100BE00080ED000AB44890ED010AD0ED030A20EE32
:100BF000200AD0ED000A90ED021A00EEC10AF0EED4
:100C0000000A20EE200AA84880ED000AAA4890EDCC
:100C1000000AD0ED010A20EE200AD0ED020A90ED84
:100C2000031A00EE810AF0EE000A20EE200A9E4828
:100C300080ED010AA04890ED010A20EE000AD0EDF7
:100C4000020A90ED021A00EE810AF7EE000AB0EEF9
:100C5000001A41EE400A9448C0ED020A69EEA90A62
:100C600048EEA80A49EE090AB0EE600A09F0D6FF7C
:100C7000924880ED000A9FED880A28EE000AF2EE05
:100C8000040A60EE200A90ED000A8D4890ED001AEB
:100C900030EE411A90ED000A00EE810A80ED000A64
:100CA000F5EEC09AF1EE10FA02DDB0EE690A01E04D
:100CB000B1EE690ADFED830AB4EEE00AF1EE10FA54
:100CC0007DD2F5EEC08AF1EE10FA02DDB0EE680AD0
:100CD00001E0B1EE680ADFED7B0AB4EEE00AF1EE66
:100CE00010FA6CD2B5EEC09AF1EE10FA02DDB0EE59
:100CF000490A01E0B1EE490ADFED720AB4EEE00AFA
:100D0000F1EE10FA5BD26D4890ED000AC9EE800A50
:100D1000F0EE609A90ED000AC8EE800AF0EE608A6C
:100D200090ED000AC9EE000AB0EE609A90ED000A5C
:100D3000DFED650AB4EEE00AF1EE10FA74DD90ED35
:100D4000000ADFED600AB4EEE00AF1EE10FA6BD2B1
:100D5000554890ED020A20EE280AD0ED010A09EE6E
:100D6000600A5A4880ED030A4F4890ED000A20EED1
:100D7000090AD0ED020A09EEE00A544880ED040A9F
:100D8000494890ED010A20EE290AD0ED000A08EE4C
:100D9000E00A4E4880ED050A9FED3F0A28EE000A62
:100DA000F7EE000A20EE20DA90ED030AD0ED060AF5
:100DB00070EE600A90ED060A0DEE200A00E026E0D3
:100DC00080ED060A90ED040AD0ED070A70EE600A85
:100DD00090ED070A0DEE200A80ED070A90ED050A56
:100DE000D0ED080A70EE600A90ED080A0DEE200AB8
:100DF00080ED080A90ED060A80ED000A90ED070AE2
:100E000080ED010A90ED080A80ED020A0CE09FEDEA
:100E1000300A2E4880ED000A9FED2D0A80ED010A70
:100E20009FED2B0A80ED020A284890ED090AD0EDCB
:100E3000000A9FED281A60EE810AB0EE001A60EEFB
:100E4000810A00EE880A80ED090A90ED0A0AD0EDC9
:100E5000010A9FED201A60EE810AB0EE001A60EEE2
:100E6000810A00EE880A80ED0A0A90ED0B0AD0EDA7
:100E7000020A9FED181A60EE810AB0EE001A60EEC9
:100E8000810A00EE880A80ED0B0A90ED090ADFED79
:100E9000120AB4EEE00A21E0C3F5C8406C0000205D
:100EA0007C0B0020700B0020280B00206800002025
:100EB00033336542740000204C0000205C000020A9
:100EC000640000200080894500806D45340B0020BF
:100ED00000000000CDCCCC3D34FA0EBDF1EE10FA8E
:100EE00002D21FED030A0FE0FD4890ED090ADFED85
:100EF000FD0AB4EEE00AF1EE10FA02DD9FEDF90A08
:100F000002E0F74890ED090AF54880ED090A90EDF6
:100F10000A0A5FED0F0AB4EEE00AF1EE10FA02D20F
:100F20001FED130A0FE0EE4890ED0A0ADFEDED0A1F
:100F3000B4EEE00AF1EE10FA02DD9FEDEA0A02E0FB
:100F4000E74890ED0A0AE64880ED0A0A90ED0B0AA0
:100F50005FED1F0AB4EEE00AF1EE10FA02D21FEDC7
:100F6000220A0FE0DE4890ED0B0ADFEDDE0AB4EE58
:100F7000E00AF1EE10FA02DD9FEDDA0A02E0D8484D
:100F800090ED0B0AD64880ED0B0AD74890ED020A87
:100F9000B5EEC00AF1EE10FA41DDD448007898B100
:100FA000D348D0ED000AD34890ED001A70EEC10A84
:100FB000B0EE600A06F08CFEDFEDCF0A20EE200ACC
:100FC000CE4880ED000A12E0C948D0ED000AC948B9
:100FD00090ED001A70EEC10AB0EE600A06F078FEDD
:100FE000DFEDC70A20EE200AC44880ED000AC3489E
:100FF00090ED000ADFEDC30AB4EEE00AF1EE10FA5C
:1010000008DC90ED000ADFEDC00AB4EEE00AF1EE74
:1010100010FA04D21FED520AB84880ED000A1FED05
:10102000540AB64880ED000AAD4890ED000AD0EDB4
:10103000090A30EE200ADFEDB50A20EE200AAA48A0
:1010400090ED001AAD48D0ED001AF0EE6E0A41EEB8
:10105000610A9FEDAF1A00EE810AA14880ED0C0AEB
:1010600090ED010AD0ED0A0A30EE200ADFEDA70A62
:1010700020EE200A9C4890ED011AA048D0ED001AFD
:10108000F0EE4F0A41EE610A9FEDA11A00EE810ACF
:10109000934880ED0D0A9448D0ED020A974890EDF0
:1010A000001AB0EE6F0A00EEC10ADFED990A20EED9
:1010B000200A8B4880ED0E0A964890ED010AB1EEA9
:1010C000400A8748D0ED0C0A20EE200A9148D0ED66
:1010D000020A834890ED0D1A00EEC10A8D48D0ED4A
:1010E000030A7F4890ED0E1A00EEC10A8948D0ED40
:1010F000000A40EE080AC0ED000A90ED000A7848A8
:10110000D0ED0C0A20EE200A8248D0ED020A744885
:1011100090ED0E1A00EE810A7E48D0ED030A704869
:1011200090ED0D1A00EEC10A7A48D0ED010A40EEAA
:10113000080AC0ED010A90ED000A6948D0ED0D0AD9
:1011400020EE200A7348D0ED010A654890ED0E1A92
:1011500000EEC10A6F48D0ED030A614890ED0C1A09
:1011600000EE810A6B48D0ED020A40EE080AC0ED9D
:10117000020A90ED000A5A48D0ED0E0A20EE200A2D
:101180006448D0ED010A564890ED0D1A00EE810A30
:101190006048D0ED020A524890ED0C1A00EEC10AE8
:1011A0005C48D0ED030A40EE080AC0ED030AD0ED1A
:1011B000000A60EEA00A90ED011AD0ED011A41EE8E
:1011C000210A90ED021AD0ED021A41EE210A90EDAB
:1011D000031AD0ED031A41EE210AB0EE600A09F0BD
:1011E0001DFD4D4880ED000A4A4890ED000A4A482E
:1011F000D0ED000A80EE201A464880ED001A90EDEE
:10120000010A4548D0ED000A80EE201A414880EDE1
:10121000011A90ED020A4048D0ED000A80EE201A33
:101220003C4880ED021A90ED030A3B48D0ED000ADD
:1012300080EE201A374880ED031A90ED011A21EE56
:10124000011AD0ED021A90ED022A01EE821AF7EE91
:10125000001AB0EE002A42EE411AF0EE610A90ED5B
:10126000001AD0ED011A21EE211AD0ED021A90EDEC
:10127000032A01EE821AF0EE001A21EE211AB0EED6
:10128000410A08F081FA5FEDF60A20EE200A85EDAA
:10129000000A204890ED010AD0ED030A20EE200A52
:1012A000D0ED000A90ED021A00EEC10AF0EE000A3D
:1012B00020EE200A10EE101A0846FFF722FA41EC41
:1012C0001C0BB0EE4C0AF0EE6C0A07F00DFBB0EE12
:1012D00040BAF0EE60BA51EC1B0B81F000411DE00A
:1012E000340B002034FA0E3D280B0020B0040020FF
:1012F000740000204800002090C2F53D70000020DE
:101300006766663F0000B4430000B4C39A99193F72
:1013100034FA8E3C4C000020600000209FED230B2F
:1013200053EC102BCDE900019DED000B51EC100B9F
:10133000FFF7F5F8CDE902019DED020B51EC100B22
:10134000FFF7F2F920601B4890ED001A21EE011A18
:10135000D0ED011A90ED012A01EE821AF7EE001A83
:10136000B0EE002A52EE011AF0EE610A90ED011A79
:10137000B1EE411AD0ED021A21EE211AD0ED001A79
:1013800090ED032A01EEC21AF0EE001A21EE211AA6
:10139000B0EE410A08F0F8F9DFED070A20EE200A66
:1013A00086ED000A04B0BDEC108B70BD000000603B
:1013B00066A64C404C0000203333654210B586B021
:1013C000FE480078FE49097890FBF1F201FB12011A
:1013D000FB480078401E814202D10120F949C870C3
:1013E000F6480078F849097890FBF1F201FB120108
:1013F000F5480078401E814202D10120F149087170
:10140000EE480078F149097890FBF1F201FB1201F6
:10141000EE480078801E814202D10120E949C8735C
:10142000E6480078EA49097890FBF1F201FB1201E5
:10143000E7480078401E814202D10120E1498870CE
:10144000DE480078E349097890FBF1F201FB1201D4
:10145000E0480078401E814202D10120D949C8727B
:10146000D6480078DC49097890FBF1F201FB1201C3
:10147000D9480078801E814202D10120D1494873A9
:10148000CE480078D549097890FBF1F201FB1201B2
:10149000D2480078801E814202D10120C949887358
:1014A000C6480078CE49097890FBF1F201FB1201A1
:1014B000CB480078C01E814202D10120C149087486
:1014C000BE480078C749097890FBF1F201FB120190
:1014D000C4480078C01E814204D1BA48407C401CF8
:1014E000B8494874B5480078401CC0B2B349087088
:1014F000C82801DD00200870B248007848B10020FB
:10150000B0490870B8480178B848007800F064FE27
:1015100024E2AC48407860B10020AA4948704FF4FA
:10152000C87364224FF496710090042001F0B0FC5F
:1015300014E2A4488078E0B10020A2498870AC4948
:1015400091ED000ADFEDAB0A20EE200ABDEEC00AE5
:1015500010EE100AA8490A780021A84B93ED001A52
:10156000A74BD3ED000AA74B93ED000A01F042FB15
:10157000F4E19448007C60B1002092490874A248CC
:1015800090ED001ADFEDA10A9FEDA00A01F0B4FA78
:10159000E4E18C48C07B28B100208A49C87301F07F
:1015A000D5FBDBE18748C078E8B300208549C870E7
:1015B000974890ED000ABDEEC00A10EE100A02B284
:1015C000944890ED010ABDEEC00A10EE100A01B277
:1015D000904890ED000ABDEEC00A10EE100A00B26D
:1015E0008D4B93ED090ABDEEC00A10EE103A1BB206
:1015F000CDE90130CDE90312874890ED080ABDEE30
:10160000C00A10EE100A00B2834C009094ED070A55
:10161000BDEEC00A10EE104A23B27F4C94ED060ACC
:10162000BDEEC00A00E015E010EE104A22B27A4C7E
:1016300094ED050ABDEEC00A10EE104A21B2764CB8
:1016400094ED040ABDEEC00A10EE104A20B201F07B
:1016500035F983E15B48007988B100205949087168
:101660006E48008800EBC00202EB00104FF6FF72DC
:1016700002EA80016A48006801F0EEF96EE1514823
:10168000C07AA8B300204F49C87240F2DC526548C6
:10169000C08900F2DC5080B26249898901F2DC51D4
:1016A00089B2CDE903025F4805920291408900F2B8
:1016B000DC5080B25B49098901F2DC5189B2594C96
:1016C000CDE90010648804F2DC54A3B2554C2488A0
:1016D00004F2DC54A2B2534CE48804F2DC54A1B20C
:1016E000504CA48804F2DC54A0B201F035F835E186
:1016F000FFE73448407B48B30020324948730090EC
:1017000001900290484C039094ED030ABCEEC00A8D
:1017100010EE104AA3B2444C94ED020ABCEEC00A8B
:1017200010EE104AA2B2404C94ED010ABCEEC00A81
:1017300010EE104AA1B23C4C94ED000ABCEEC00A77
:1017400010EE104AA0B200F00DFE07E11D48807BAC
:1017500040B100201B4988734FF4E4717B2000F0F6
:10176000B5FFFBE01748407930B3002015494871B8
:101770002E48D0ED1E4AB0EE644AD0ED1F4AF0EE7E
:10178000643AD0ED1D4AB0EE643AD0ED1A4AF0EE5C
:10179000642AD0ED1B4AB0EE642AD0ED194AF0EE6F
:1017A000641AD0ED164AB0EE641AD0ED174AF0EE86
:1017B000640AD0ED154A3BE040E00000E40400205C
:1017C000E50400205C0F0020E6040020E704002070
:1017D000E8040020E9040020EA040020EB040020D3
:1017E000EC040020ED040020E1040020E0040020CF
:1017F00024050020CDCCCC3DB004002048000020C2
:1018000044000020400000201405002000000000DB
:1018100034050020880E0020D81100206805002023
:1018200024060020880C0020D40E0020000D00208B
:10183000B0EE640A012000F02BFE8FE0484880796A
:1018400058B30020464988714648D0ED1E4AB0EE94
:10185000644AD0ED1F4AF0EE643AD0ED1D4AB0EE76
:10186000643AD0ED1A4AF0EE642AD0ED1B4AB0EE8D
:10187000642AD0ED194AF0EE641AD0ED164AB0EEA3
:10188000641AD0ED174AF0EE640AD0ED154AB0EEB6
:10189000640A022000F0FCFD60E03148C07958B3D2
:1018A00000202F49C8713048D0ED214AB0EE644A7B
:1018B000D0ED224AF0EE643AD0ED204AB0EE643A20
:1018C000D0ED1D4AF0EE642AD0ED1E4AB0EE642A37
:1018D000D0ED1C4AF0EE641AD0ED194AB0EE641A4D
:1018E000D0ED1A4AF0EE640AD0ED184AB0EE640A60
:1018F000032000F0CDFD31E01948007AF8B1002056
:10190000174908721848D0ED251AB0EE611AD0EDCB
:10191000261AF0EE610AD0ED241AB0EE610AB1EE9B
:10192000084AF1EE043AB1EE003AF0EE082AB0EEC1
:10193000002AF7EE001A042000F0AAFD0EE0084885
:10194000407C02280AD10020054948741FED510A45
:1019500000231A461946184600F06EFC06B010BD6A
:101960005C0F0020C40D0020C80B002070B52DEDC9
:10197000048B04460E460025002004E0215C294427
:10198000CDB2411CC8B2711E8142F7DCA01910F81B
:10199000010CA84202D0BDEC048B70BD2078AA28AF
:1019A00002D16078AF2800D0F5E7A078012822D1D5
:1019B0002079012802D1FE4908701CE02079022814
:1019C00003D10120FA49487015E02079032804D199
:1019D0000120F749087048700DE02079042803D1F0
:1019E0000120F449087006E02079212802DB2079E3
:1019F000262800DD00BFA078022814D12079012814
:101A000006D1ED4948718871C871087248728872B0
:101A10002079A02802D10120E74948702079A12827
:101A200001D104F02BFEA07803282AD1E3480078E6
:101A3000012802D0022002F02FFE2079617941EACC
:101A40000020DF498880A079E17941EA0020DC4963
:101A5000C880207A617A41EA0020D9490880A07ABA
:101A6000E17A41EA0020D6494880207B617B41EA47
:101A70000020D3490881A07BE17B41EA0020D049C6
:101A80004881A07810287DD12179090209B26279B4
:101A900041EA0200FEF724FE41EC190B9FEDC90B51
:101AA00053EC102BFEF73BFD41EC180BFEF73CFE10
:101AB000C6494865A179090209B2E27941EA020002
:101AC000FEF70EFE41EC190B9FEDBE0B53EC102BF5
:101AD000FEF725FD41EC180BFEF726FEBB49C86555
:101AE000217A090209B2627A41EA0200FEF7F8FDA2
:101AF00041EC190B9FEDB30B53EC102BFEF70FFDD0
:101B000041EC180BFEF710FEB0498865A17A090276
:101B100009B2E27A41EA0200FEF7E2FD41EC190B5C
:101B20009FEDA80B53EC102BFEF7F9FC41EC180BC2
:101B3000FEF7FAFDA5494866217B090209B2627BDE
:101B400041EA0200FEF7CCFD41EC190B9FED9D0B25
:101B500053EC102BFEF7E3FC41EC180BFEF7E4FD11
:101B600001469A48C166A17B090209B2E27B41EABB
:101B70000200FEF7B5FD41EC190B9FED920B53EC03
:101B8000102B00E05CE0FEF7CAFC41EC180BFEF7FE
:101B9000CBFD01468D488166217C090209B2627C39
:101BA00041EA0200FEF79CFD41EC190B9FED850B0D
:101BB00053EC102BFEF7B3FC41EC180BFEF7B4FD11
:101BC00082494867A17C090209B2E27C41EA02002D
:101BD000FEF786FD41EC190B9FED7A0B53EC102BB1
:101BE000FEF79DFC41EC180BFEF79EFD0146774881
:101BF000C167217D090209B2627D41EA0200FEF758
:101C00006FFD41EC190B9FED6F0B53EC102BFEF7A2
:101C100086FC41EC180BFEF787FD01466B48816797
:101C20006548007838B9012063490870A078684990
:101C300008706848057004F01FFB012066490880A1
:101C4000A07811287DD12179090209B2627941EA8F
:101C50000200FEF745FD41EC190B9FED5A0B53ECCA
:101C6000102BFEF75CFC41EC180BFEF75DFD5B49A9
:101C70004865A179090209B2E27941EA0200FEF75A
:101C80002FFD41EC190B9FED4F0B53EC102BFEF782
:101C900046FC41EC180BFEF747FD5049C865217A18
:101CA000090209B2627A41EA0200FEF719FD41EC2D
:101CB000190B9FED440B53EC102BFEF730FC41EC5D
:101CC000180BFEF731FD45498865A17A090209B272
:101CD000E27A41EA0200FEF703FD41EC190B9FEDA9
:101CE000390B53EC102BFEF71AFC41EC180BFEF7E6
:101CF0001BFD3A494866217B090209B2627B41EA31
:101D00000200FEF7EDFC41EC190B9FED2E0B53EC9E
:101D1000102BFEF704FC41EC180BFEF705FD014605
:101D20002E48C166A17B090209B2E27B41EA0200AA
:101D3000FEF7D6FC41EC190B9FED220B53EC102B58
:101D400000E075E0FEF7EBFB41EC180BFEF7ECFC56
:101D5000014622488166217C090209B2627C41EA7F
:101D60000200FEF7BDFC41EC190B9FED160B53EC86
:101D7000102BFEF7D4FB41EC180BFEF7D5FC1749EE
:101D80004867A17C090209B2E27C41EA0200FEF741
:101D9000A7FC41EC190B9FED0B0B53EC102BFEF73E
:101DA000BEFB41EC180BFEF7BFFC01460B4817E0E9
:101DB000D8110020D50500205C0F002082040020EF
:101DC000A00F0020FCA9F1D24D62503F000D002071
:101DD000E0040020E1040020E2040020C40D002003
:101DE000C167217D090209B2627D41EA0200FEF766
:101DF00077FC41EC190B1FED0D0B53EC102BFEF78C
:101E00008EFB41EC180BFEF78FFC0146B248816750
:101E1000B248007838B90120B0490870A078B049BC
:101E20000870B048057004F027FA0120AE49088018
:101E3000A07812287ED12179090209B2627941EA9B
:101E40000200FEF74DFC41EC190B1FED220B53EC89
:101E5000102BFEF764FB41EC180BFEF765FCA34961
:101E60000866A179090209B2E27941EA0200FEF7A7
:101E700037FC41EC190B1FED2D0B53EC102BFEF72B
:101E80004EFB41EC180BFEF74FFC98498866217A0F
:101E9000090209B2627A41EA0200FEF721FC41EC34
:101EA000190B1FED380B53EC102BFEF738FB41ECF0
:101EB000180BFEF739FC8D494866A17A090209B270
:101EC000E27A41EA0200FEF70BFC41EC190B1FED30
:101ED000430B53EC102BFEF722FB41EC180BFEF7E3
:101EE00023FC82490867217B090209B2627B41EA2F
:101EF0000200FEF7F5FB41EC190B1FED4E0B53EC06
:101F0000102BFEF70CFB41EC180BFEF70DFC77498C
:101F10008867A17B090209B2E27B41EA0200FEF771
:101F2000DFFB41EC190B1FED590B53EC102BFEF7A7
:101F3000F6FA00E05AE041EC180BFEF7F5FB6B49AE
:101F40004867217C090209B2627C41EA0200FEF77F
:101F5000C7FB41EC190B1FED650B53EC102BFEF783
:101F6000DEFA41EC180BFEF7DFFB6049C1F8800098
:101F7000A17C090209B2E27C41EA0200FEF7B0FB53
:101F800041EC190B1FED710B53EC102BFEF7C7FA48
:101F900041EC180BFEF7C8FB5449C1F88800217DBD
:101FA000090209B2627D41EA0200FEF799FB41ECA9
:101FB000190B1FED7C0B53EC102BFEF7B0FA41EC24
:101FC000180BFEF7B1FB4949C1F88400434800787B
:101FD00038B9012041490870A0784149087041484A
:101FE000057004F049F901203F490880A0781328C2
:101FF00054D12179090209B2627941EA0200FEF75F
:102000006FFB41EC190B1FED910B53EC102BFEF7FE
:1020100086FA41EC180BFEF787FB3449C1F89000B3
:10202000A179090209B2E27941EA0200FEF758FB00
:1020300041EC190B1FED9D0B53EC102BFEF76FFAC3
:1020400041EC180BFEF770FB2849C1F89800217A83
:10205000090209B2627A41EA0200FEF741FB41EC53
:10206000190B1FEDA80B53EC102BFEF758FA41EC9F
:10207000180BFEF759FB1D49C1F89400174800786A
:1020800038B9012015490870A0781549087015481D
:10209000057004F0F1F8012013490880A078142895
:1020A0000AD10E48007838B901200C490870A07890
:1020B0000B4908700B480570A07815280AD107480D
:1020C000007838B9012005490870A07804490870E3
:1020D0000448057000BF5EE4C40D00205C0F0020C2
:1020E000E0040020E1040020E2040020C80B0020EE
:1020F00010B504463448007838B9AA2C05D101201F
:1021000031490870314804705DE02F48007801289B
:1021100007D1AF2C05D102202B4908702B48447001
:1021200051E029480078022807D1F12C05DA032074
:10213000254908702548847045E023480078032825
:102140000CD1322C0ADA04201F4908701F48C470D1
:102150001F48047000201F49087034E01A480078B6
:10216000042819D11A480078002815DD184800788D
:10217000401E174908701748007816490978491C0D
:10218000144A1170001D11490C5411480078D0B93F
:1021900005200D49087016E00B48007805280FD17E
:1021A0000020094908700B480078001D07490C54AD
:1021B00008480078401DC1B20448FFF7D7FB02E091
:1021C00000200149087010BDF0040020AC0F002071
:1021D000EE040020EF04002070B504460D46AA204E
:1021E0000D4908704870EF2088700220C8700846BA
:1021F000047145710026002005E00749095C31445F
:10220000CEB2411CC8B20628F7DB0348867107210D
:1022100000F004F870BD00006E0F002070B5054698
:102220000C4622460249034805F05DFF70BD0000E0
:102230006E0F002000C000402DE9F0432DED028B11
:1022400083B005460E4617469846B0EE408A0024F5
:10225000AA222146641C414842542146641C42542F
:1022600004222146641C425400222146641C42542C
:102270002146641C45542146641C465401979DF830
:1022800007202146641C42549DF806202046611C0C
:10229000CCB232490A549DF805202046611CCCB2CC
:1022A0002E490A549DF804202046611CCCB22B49CB
:1022B0000A54CDF804809DF807202046611CCCB25A
:1022C00026490A549DF806202046611CCCB22349B9
:1022D0000A549DF805202046611CCCB21F490A54BF
:1022E0009DF804202046611CCCB21C490A549FED85
:1022F0001C0A28EE000ABDEEC00A10EE100A00B259
:1023000002909DF809202046611CCCB213490A5462
:102310009DF808202046611CCCB210490A54201FA9
:10232000C8704FF00009002006E00C49095C4944E0
:1023300001F0FF09411CC8B2A042F6DB2046611C37
:10234000CCB2064901F8009021460448FFF766FF29
:1023500003B0BDEC028BBDE8F08300006E0F0020DF
:102360000000C8427FB50024AA222146641C4748C9
:1023700042542146641C425406222146641C4254A5
:1023800000222146641C42549DF801202146641C11
:1023900042549DF800202146641C42549DF80520BB
:1023A0002146641C42549DF804202046611CCCB296
:1023B00036490A549DF809202046611CCCB23349A5
:1023C0000A549DF808202046611CCCB22F490A54BB
:1023D0009DF80D202046611CCCB22C490A549DF872
:1023E0000C202146601CC4B2284842549DF821208C
:1023F0002046611CCCB225490A549DF82020204675
:10240000611CCCB221490A549DF825202046611C4C
:10241000CCB21E490A549DF824202046611CCCB23F
:102420001A490A549DF829202046611CCCB217494C
:102430000A549DF828202046611CCCB213490A5446
:102440009DF82D202046611CCCB210490A549DF8FD
:102450002C202046611CCCB20C490A54201FC870A5
:102460000025002005E00949095C2944CDB2411C42
:10247000C8B2A042F7DB2046611CCCB203490D5420
:1024800021460248FFF7CAFE7FBD00006E0F002004
:1024900070B52DED0A8B82B00546B0EE408AF0EEA5
:1024A000608AB0EE419AF0EE619AB0EE42AAF0EE88
:1024B00062AAB0EE43BAF0EE63BAB0EE44CA0024AA
:1024C000AA222146641C7F4842542146641C42547F
:1024D00005F10F00C2B22146641C7A484254002222
:1024E0002146641C42549FED780A28EE000ABDEE96
:1024F000C00A10EE100A00B201909DF80520214696
:10250000641C704842549DF804202146641C4254C7
:102510009FED6D0A28EE800ABDEEC00A10EE100A8B
:1025200000B201909DF805202146641C6548425484
:102530009DF804202046611CCCB262490A549FEDEC
:10254000620A29EE000ABDEEC00A10EE100A00B2BF
:1025500001909DF805202046611CCCB259490A54CF
:102560009DF804202046611CCCB256490A549FEDC8
:10257000560A29EE800ABDEEC00A10EE100A00B21B
:1025800001909DF805202046611CCCB24D490A54AB
:102590009DF804202046611CCCB24A490A549FEDA4
:1025A0004A0A2AEE000ABDEEC00A10EE100A00B276
:1025B00001909DF805202046611CCCB241490A5487
:1025C0009DF804202046611CCCB23E490A549FED80
:1025D0003E0A2AEE800ABDEEC00A10EE100A00B2D2
:1025E00001909DF805202046611CCCB235490A5463
:1025F0009DF804202046611CCCB232490A549FED5C
:10260000320A2BEE000ABDEEC00A10EE100A00B22C
:1026100001909DF805202046611CCCB229490A543E
:102620009DF804202046611CCCB226490A549FED37
:10263000260A2BEE800ABDEEC00A10EE100A00B288
:1026400001909DF805202046611CCCB21D490A541A
:102650009DF804202046611CCCB21A490A549FED13
:102660001A0A2CEE000ABDEEC00A10EE100A00B2E3
:1026700001909DF805202046611CCCB211490A54F6
:102680009DF804202046611CCCB20E490A54201F3C
:10269000C8700026002005E00A49095C3144CEB22A
:1026A000411CC8B2A042F7DB2046611CCCB20549F0
:1026B0000E5421460348FFF7B1FD02B0BDEC0A8B72
:1026C00070BD00006E0F002000007A44F8B505468A
:1026D0000E460024AA222146641C1E48425421466C
:1026E000641C425405222146641C425400222146A7
:1026F000641C425400959DF801202146641C4254FC
:102700009DF800202146641C425400969DF801204B
:102710002146641C42549DF800202146601CC4B22E
:102720000C484254201F0B49C8700027002005E0C8
:102730000849095C3944CFB2411CC8B2A042F7DB5A
:102740002046611CCCB203490F5421460148FFF7D3
:1027500065FDF8BD6E0F00207FB50024AA2221463A
:10276000641C554842542146641C425403222146AD
:10277000641C425400222146641C42549DF80120EE
:102780002146641C42549DF800202146641C42549A
:102790009DF805202146641C42549DF804202046E3
:1027A000611CCCB244490A549DF809202046611CA2
:1027B000CCB241490A549DF808202046611CCCB295
:1027C0003D490A549DF80D202046611CCCB23A497F
:1027D0000A549DF80C202046611CCCB236490A549C
:1027E0009DF821202046611CCCB233490A549DF843
:1027F00020202146601CC4B22F4842549DF8252059
:102800002046611CCCB22C490A549DF82420204655
:10281000611CCCB228490A549DF829202046611C2D
:10282000CCB225490A549DF828202046611CCCB220
:1028300021490A549DF82D202046611CCCB21E4926
:102840000A549DF82C202046611CCCB21A490A5427
:102850009DF831202046611CCCB217490A549DF8DE
:1028600030202046611CCCB213490A549DF8352013
:102870002046611CCCB210490A549DF834202046F1
:10288000611CCCB20C490A54201FC87000250020DE
:1028900005E00949095C2944CDB2411CC8B2A042F7
:1028A000F7DB2046611CCCB203490D542146024897
:1028B000FFF7B4FC7FBD00006E0F00202DE9F84F3C
:1028C00005460E4617469846DDE90AAB0024AA22C3
:1028D0002146641C5F4842542146641C4254022233
:1028E0002146641C425400222146641C4254009537
:1028F0009DF801202146641C42549DF80020214689
:10290000641C425400969DF801202146641C4254E8
:102910009DF800202146601CC4B24E4842540097E6
:102920009DF801202046611CCCB24A490A549DF80A
:1029300000202046611CCCB246490A54CDF80080E4
:102940009DF801202046611CCCB242490A549DF8F2
:1029500000202046611CCCB23E490A54CDF800A0AC
:102960009DF801202046611CCCB23A490A549DF8DA
:1029700000202046611CCCB236490A54CDF800B084
:102980009DF801202146601CC4B2324842549DF893
:1029900000202146601CC4B22E4842540C9800907E
:1029A0009DF801202046611CCCB22A490A549DF8AA
:1029B00000202046611CCCB226490A540D98009094
:1029C0009DF801202046611CCCB222490A549DF892
:1029D00000202046611CCCB21E490A540E9800907B
:1029E0009DF801202046611CCCB21A490A549DF87A
:1029F00000202046611CCCB216490A5400200090E9
:102A00009DF801202046611CCCB212490A549DF861
:102A100000202046611CCCB20E490A54201FC87009
:102A20004FF00009002006E00A49095C494401F022
:102A3000FF09411CC8B2A042F6DB2046611CCCB2A3
:102A4000044901F8009021460248FFF7E7FBBDE882
:102A5000F88F00006E0F002073B50024AA222146D3
:102A6000641C244842542146641C425407222146D7
:102A7000641C425400222146641C42549DF80320E9
:102A80002146641C42549DF802202146641C425495
:102A90009DF801202146641C42549DF800202046E8
:102AA000611CCCB213490A549DF805202046611CD4
:102AB000CCB210490A549DF804202046611CCCB2C7
:102AC0000C490A54201FC8700025002005E0094960
:102AD000095C2944CDB2411CC8B2A042F7DB2046B4
:102AE000611CCCB203490D5421460248FFF796FB06
:102AF0007CBD00006E0F002030B52DED048B81B041
:102B0000B0EE408AF0EE608AB0EE419A0024AA222C
:102B10002146641C354842542146641C42540B2211
:102B20002146641C425400222146641C42549FEDFD
:102B3000300A28EE000ABDEEC00A10EE100A00B2FC
:102B400000909DF801202146641C284842549DF8BD
:102B500000202146641C42549FED250A28EE800A7D
:102B6000BDEEC00A10EE100A00B200909DF80120E0
:102B70002146641C1D4842549DF800202046611CDB
:102B8000CCB21A490A549FED1A0A29EE000ABDEE8A
:102B9000C00A10EE100A00B200909DF801202046F5
:102BA000611CCCB211490A549DF800202046611CDA
:102BB000CCB20E490A54201FC8700025002005E041
:102BC0000A49095C2944CDB2411CC8B2A042F7DBD6
:102BD0002046611CCCB205490D5421460348FFF73D
:102BE0001DFB01B0BDEC048B30BD00006E0F00205A
:102BF000CDCCCC3D2DE9F0412DED048B82B0B0EE73
:102C0000408AF0EE608AB0EE419A05460E461746BD
:102C100000240095AA222146641C4A4842542146B9
:102C2000641C425401222146641C42540022214665
:102C3000641C42549FED440A28EE000ABDEEC00A0F
:102C400010EE100A00B201909DF805202146641C88
:102C50003C4842549DF804202146641C42549FED98
:102C60003A0A28EE800ABDEEC00A10EE100A00B241
:102C700001909DF805202146641C324842549DF87D
:102C800004202046611CCCB22E490A549FED2E0A26
:102C900029EE000ABDEEC00A10EE100A00B2019043
:102CA0009DF805202046611CCCB226490A549DF8A7
:102CB00004202046611CCCB222490A549DF803200E
:102CC0002046611CCCB21F490A549DF802202046C0
:102CD000611CCCB21B490A549DF801202046611C9E
:102CE000CCB218490A549DF800202146601CC4B299
:102CF000144842542046611CCCB212490E5420465E
:102D0000611CCCB20F490F54201FC8704FF000084F
:102D1000002006E00B49095C414401F0FF08411C1A
:102D2000C8B2A042F6DB2046611CCCB2054901F8CE
:102D3000008021460348FFF771FA02B0BDEC048B16
:102D4000BDE8F0816E0F00200000C84238B50024B5
:102D5000AA222146641C494842542146641C42541C
:102D6000F1222146641C425400222146641C425434
:102D7000434890ED000ABDEEC00A10EE100A00B202
:102D800000909DF801202146641C3C4842549DF867
:102D900000202146641C42543A4890ED000ABDEEE2
:102DA000C00A10EE100A00B200909DF801202146E2
:102DB000641C324842549DF800202046611CCCB26D
:102DC0002E490A542F4890ED000ABDEEC00A10EEBD
:102DD000100A00B200909DF801202046611CCCB280
:102DE00026490A549DF800202046611CCCB2234994
:102DF0000A54254890ED000ABDEEC00A10EE100AF4
:102E000000B200909DF801202046611CCCB21B4905
:102E10000A549DF800202046611CCCB217490A5480
:102E20001A4890ED000ABDEEC00A10EE100A00B27A
:102E300000909DF801202046611CCCB20F490A5435
:102E40009DF800202046611CCCB20C490A54201F7A
:102E5000C8700025002005E00849095C2944CDB26E
:102E6000411CC8B2A042F7DB2046611CCCB203492A
:102E70000D5421460148FFF7D1F938BD6E0F0020EF
:102E80002C05002014050020040500202405002046
:102E90007FB505460024AA222146641C2C484254D2
:102EA0002146641C425400222146641C425421469F
:102EB000641C42542146641C45549DF8052021465B
:102EC000641C42549DF804202146641C42549DF821
:102ED00009202046611CCCB21D490A549DF80820E7
:102EE0002046611CCCB21A490A549DF80D20204698
:102EF000611CCCB216490A549DF80C202046611C76
:102F0000CCB213490A549DF821202046611CCCB252
:102F10000F490A549DF820202046611CCCB20C4970
:102F20000A54201FC8700026002005E00849095CEB
:102F30003144CEB2411CC8B2A042F7DB2046611C2E
:102F4000CCB203490E5421460148FFF767F97FBD13
:102F50006E0F002030B52DED048B89B0F0EE408A65
:102F6000B0EE609AB0EE418A9FEDD20AB4EEC08A0C
:102F7000F1EE10FA02D29FEDCF0A0BE09FEDCE0AE0
:102F8000B4EEC08AF1EE10FA02DD9FEDCB0A01E04B
:102F9000B0EE480AB0EE408AB1EE680A30EE090A97
:102FA00030EE080A8DED050A38EE890A30EE480A3F
:102FB0008DED060A38EEC90A30EE080A8DED070AD3
:102FC000B1EE680A30EE490A30EE480A8DED080A83
:102FD000002429E005A800EB840090ED000ADFED55
:102FE000B70AB4EEE00AF1EE10FA02D29FEDB30A8E
:102FF00013E005A800EB840090ED000ADFEDB00AB5
:10300000B4EEE00AF1EE10FA02DD9FEDAD0A04E045
:1030100005A800EB840090ED000A05A800EB8400F1
:1030200080ED000A601CC4B2042CD3DB9DED050AC0
:10303000B5EEC00AF1EE10FA02DD9DED050A03E0DF
:103040009DED050AB1EE400ADFED9E0A60EE200A12
:103050009FED9B1A80EE810ADFED9B0A30EE200A7D
:10306000DDED050A20EE200A8DED010A9DED060A30
:10307000B5EEC00AF1EE10FA02DD9DED060A03E09E
:103080009DED060AB1EE400ADFED8E0A20EE200A21
:10309000DFED8B0A80EE201A9FED8B0A31EE000ADD
:1030A000DDED060A20EE200A8DED020A9DED070AED
:1030B000B5EEC00AF1EE10FA02DD9DED070A03E05D
:1030C0009DED070AB1EE400ADFED7E0A20EE200AF0
:1030D0009FED7B1AC0EE010A9FED7B0A30EE800A5D
:1030E000DDED070A20EE200A8DED030A9DED080AAA
:1030F000B5EEC00AF1EE10FA02DD9DED080A03E01C
:103100009DED080AB1EE400ADFED6E0A20EE200ABE
:10311000DFED6B0A80EE201A9FED6B0A31EE000A9C
:10312000DDED080A20EE200A8DED040ADDED010A2E
:10313000664890ED000A664890ED001A01EE200AFC
:10314000644880ED000ADDED020A604890ED000A57
:103150005F4890ED001A01EE200A5E4880ED010AFA
:10316000DDED030A594890ED000A594890ED001A28
:1031700001EE200A574880ED020ADDED040A5348AB
:1031800090ED000A524890ED001A01EE200A5148D5
:1031900080ED030A5048007888B35048007878BB27
:1031A000002429E04B4800EB840090ED000ADFED9D
:1031B0004C0AB4EEE00AF1EE10FA02D29FED480A92
:1031C00013E0444800EB840090ED000ADFED3C0A78
:1031D000B4EEE00AF1EE10FA02DD9FED390A04E0E8
:1031E0003C4800EB840090ED000A3A4800EB840074
:1031F00080ED000A601CC4B2042CD3DB3BE02DE060
:10320000FFE7002427E0334800EB840090ED000A3C
:10321000B5EEC00AF1EE10FA02D29FED320A13E0C9
:103220002C4800EB840090ED000ADFED250AB4EE97
:10323000E00AF1EE10FA02DD9FED210A04E02548D4
:1032400000EB840090ED000A224800EB840080ED42
:10325000000A601CC4B2042CD5DB0CE0002408E09A
:103260009FED200A1B4800EB840080ED000A601CE3
:10327000C4B2042CF4DB174D95ED030ABCEEC00A72
:1032800010EE103A95ED020ABCEEC00A10EE102ABC
:1032900095ED010ABCEEC00A10EE101A95ED000A79
:1032A000BCEEC00A10EE100A03F02EF909B0BDEC16
:1032B000048B30BD0000C8C30000C84300007AC4BE
:1032C00000007A446666E63ECDCC0C3FB804002090
:1032D000C0040020D40E0020B0040020BC04002054
:1032E00000004843000000001F4890ED001ABDEEAA
:1032F000C11A11EE100A00B238B91C4890ED001A3C
:10330000B8EEC11A184880ED001A184890ED001A5E
:10331000B8EEC11A1448D0ED001A31EE611AF2EE7F
:10332000041A21EE211A124880ED001A114890ED7E
:10333000001A1148D0ED001A00EE211A0D4880ED58
:10334000001A9FED0E1A60EE011A094890ED001A5E
:10335000084890ED002A31EE422A90ED001A01EE65
:10336000821A80ED001A70476005002024060020B4
:103370002C05002024050020140500209CC4203FBB
:1033800030B5044644F080040021204606F0EEF8F3
:103390000546284630BD000000B52DED028B83B0F8
:1033A000B0EE408AFA4890ED120AF3EE0E0A80EE73
:1033B000201A9FEDF80A21EE000A8DED000AD0EDEB
:1033C000130AB3EE0E1A80EE810ADFEDF20A20EE48
:1033D000200A8DED010A90ED140AF3EE0E0A80EE3C
:1033E000201A9FEDEC0A21EE000A8DED020A9DEDF8
:1033F000000AE94880ED000A9DED010A80ED010A0E
:103400009DED020A80ED020A90ED000ADFEDE30A6D
:10341000B4EEE00AF1EE10FA02D29FEDE00A0FE0FE
:10342000DD4890ED000ADFEDDB0AB4EEE00AF1EED4
:1034300010FA02DD9FEDD70A02E0D74890ED000AAE
:10344000D54880ED000A90ED010ADFEDD40AB4EE14
:10345000E00AF1EE10FA02D29FEDD00A0FE0CE485A
:1034600090ED010ADFEDCB0AB4EEE00AF1EE10FABE
:1034700002DD9FEDC80A02E0C74890ED010AC64888
:1034800080ED010A90ED020ADFEDC40AB4EEE00A15
:10349000F1EE10FA02D29FEDC10A0FE0BE4890EDA6
:1034A000020ADFEDBC0AB4EEE00AF1EE10FA02DD2A
:1034B0009FEDB80A02E0B84890ED020AB64880EDE8
:1034C000020ADFEDB70A80EE880AB648D0ED0A0A94
:1034D000B54890ED001A70EEC10A20EE200AB348FC
:1034E00080ED0F0ADFEDAE0A80EE880AAD48D0ED20
:1034F0000B0AAD4890ED011A70EEC10A20EE200AC9
:10350000AA4880ED100ADFEDA60A80EE880AA548D9
:10351000D0ED0C0AF1EE600AA34890ED021A70EEAD
:10352000C10A20EE200AA14880ED110A9A4890EDC8
:10353000000A9C48D0ED0A0A30EE600AF7EE000A55
:1035400020EE200A994880ED000A934890ED010A88
:103550009448D0ED0B0A30EE600AF7EE000A20EE38
:10356000200A924880ED010A8B4890ED020A8D48AE
:10357000D0ED0C0A30EE200AF7EE000A20EE200A09
:103580008A4880ED020A90ED000AB5EEC00AF1EE1D
:1035900010FA02DD90ED000A04E0844890ED000A84
:1035A000B1EE400ADFED7B0A80EE201A7F4880ED05
:1035B0002D1A90ED010AB5EEC00AF1EE10FA02DD07
:1035C00090ED010A04E0794890ED010AB1EE400A5D
:1035D000DFED700A80EE201A744880ED2E1A90ED0F
:1035E000020AB5EEC00AF1EE10FA02DD90ED020A11
:1035F00004E06E4890ED020AB1EE400ADFED6C0A7D
:1036000080EE201A694880ED2F1ADFED650A80EE02
:10361000880AD0ED160A90ED0F1AFAEE041A21EE80
:10362000211A60EE810A20EE200A80ED0C0ADFEDFF
:103630005C0A80EE880AD0ED1A0A90ED101AFAEEB4
:10364000041A21EE211A60EE810A20EE200A80ED94
:103650000D0ADFED530A80EE880AD0ED1E0A90EDC8
:10366000111AFAEE041A21EE211A60EE810A20EEF8
:10367000200A80ED0E0A90ED000AD0ED0F0A30EE20
:10368000600AD0ED170A60EE200A90ED060A00EEFF
:10369000880A80ED060A90ED010AD0ED100A30EE9E
:1036A000600AD0ED1B0A60EE200A90ED070A00EEDA
:1036B000880A80ED070A90ED020AD0ED110A30EE7B
:1036C000600AD0ED1F0A60EE200A90ED080A00EEB5
:1036D000880A80ED080A374890ED000AF6EE000AE5
:1036E00020EE200ADFED2B0A20EE200A2F4880ED85
:1036F000090A304890ED000AF6EE000A20EE200A92
:10370000DFED240A20EE200A284880ED0A0A294825
:1037100090ED000AF6EE000A20EE200ADFED1D0A09
:1037200020EE200A214880ED0B0A90ED060AD0ED2C
:10373000090AF1EE600AB4EEE00AF1EE10FA04D2E2
:1037400090ED090AB1EE400A0FE0184890ED060A24
:10375000D0ED090AB4EEE00AF1EE10FA02DD90EDC8
:10376000090A02E0114890ED060A104880ED060AA9
:1037700090ED070AD0ED0A0AF1EE600AB4EEE00A15
:10378000F1EE10FA18D290ED0A0AB1EE400A23E0E9
:10379000C40D002000009643AC0E0020000096C32C
:1037A0006F12033BD8110020B80E0020000D00203E
:1037B00000001643C0040020B34890ED070AD0ED86
:1037C0000A0AB4EEE00AF1EE10FA02DD90ED0A0A00
:1037D00002E0AD4890ED070AAB4880ED070A90ED96
:1037E000080AD0ED0B0AF1EE600AB4EEE00AF1EE41
:1037F00010FA04D290ED0B0AB1EE400A0FE0A24895
:1038000090ED080AD0ED0B0AB4EEE00AF1EE10FAE2
:1038100002DD90ED0B0A02E09B4890ED080A9A4801
:1038200080ED080A90ED300AF7EE000A30EEC00A8B
:10383000D0ED150A20EE200AD0ED000A90ED0C1A0A
:1038400070EE810A90ED061A70EE810A60EE200A91
:1038500090ED301A8D48D0ED2D1A9FED8D0A9FED19
:103860008D2A02EE210AB5EEC00AF1EE10FA02D25C
:103870009FED890A1BE08548D0ED2D1A9FED840A43
:103880009FED842A02EE210AF7EE001AB4EEE10A57
:10389000F1EE10FA02DDB7EE000A08E07B48D0ED49
:1038A0002D1A9FED7B0A9FED7B2A02EE210A21EE65
:1038B000000A7A4890ED001A40EE010AB0EE080ABC
:1038C00020EE800A704880ED120A90ED300AF7EE83
:1038D000000A30EEC00AD0ED190A20EE200AD0ED21
:1038E000010A90ED0D1A70EE810A90ED071A70EE44
:1038F000810A60EE200A90ED301A6448D0ED2E1A4D
:103900009FED630A9FED632A02EE210AB5EEC00A1D
:10391000F1EE10FA02D29FED600A1BE05B48D0ED99
:103920002E1A9FED5B0A9FED5B2A02EE210AF7EE4D
:10393000001AB4EEE10AF1EE10FA02DDB7EE000A69
:1039400008E05248D0ED2E1A9FED510A9FED512A02
:1039500002EE210A21EE000A504890ED011A40EED5
:10396000010AB0EE080A20EE800A474880ED130AEB
:1039700090ED300AF7EE000A30EEC00AD0ED1D0AD5
:1039800020EE200AD0ED020A90ED0E1A70EE810AA8
:1039900090ED081A70EE810A60EE200A90ED301A60
:1039A0003A48D0ED2F1A9FED3A0A9FED3A2A02EEDF
:1039B000210AB5EEC00AF1EE10FA02D29FED360AE6
:1039C0001BE03248D0ED2F1A9FED310A9FED312ACE
:1039D00002EE210AF7EE001AB4EEE10AF1EE10FA57
:1039E00002DDB7EE000A08E02848D0ED2F1A9FED5F
:1039F000280A9FED282A02EE210A21EE000A274814
:103A000090ED021A40EE010AB0EE080A20EE800A9C
:103A10001D4880ED140AB0EE480A04F04DF81A482B
:103A2000D0ED141AB0EE611AD0ED121AF0EE610A60
:103A3000D0ED131AB0EE610AFFF78CFA124890ED40
:103A4000000A80ED030A90ED010A80ED040A90ED72
:103A5000020A80ED050A124890ED0A0A114880ED2D
:103A6000000A0F4890ED0B0A0E4880ED010A0C4841
:103A700090ED0C0AB1EE400A0A4880ED020A03B04C
:103A8000BDEC028B00BD0000000D0020C40D002025
:103A90006666E63ECDCC0C3F00000000AC0E002078
:103AA000D8110020B80E002010B52DED0E8BB0EE11
:103AB000408AFD48D0ED010AB0EE600AF3EE0E0A2E
:103AC00007F06EF89FEDF91AC0EE010AB3EE090A8D
:103AD00020EE800AF64880ED000AF348D0ED000A97
:103AE000B0EE600AF3EE0E0A07F05AF89FEDEF1AF7
:103AF000C0EE010AB3EE090A20EE800AEC4880ED20
:103B0000010AEC48007808BBE748D0ED030AB0EEA4
:103B1000600ADFEDE90A07F065F8DFEDE40A80EE00
:103B2000201A9FEDE60A21EE000ABDEEC00A10EE53
:103B3000100A00B200EE100AF8EEC00ADC4890ED60
:103B4000020A00EE880A80ED020A36E0D84890EDBD
:103B5000020ADB48D0ED000A30EEC00A10EE101A5F
:103B60000846FCF7CEFD41EC1C0B18EE100AFCF7E2
:103B7000C8FD41EC1E0B9FEDD30B53EC102BFCF753
:103B8000CEFC41EC1D0B53EC1C2BFCF7C8FC41ECAC
:103B90001A0BC74890ED020A10EE101A0846FCF7FF
:103BA000B0FD41EC1B0B53EC1A2BFCF711FC41EC64
:103BB000190BFCF7B9FDBE498860BD48D0ED020A7B
:103BC000B0EE600A04F084F8B94880ED020ABF48FC
:103BD000D0ED000AB64890ED001A70EE810ABC489C
:103BE00090ED001A70EEC10AB0EE600A04F070F8B1
:103BF000B84880ED000AB548D0ED010AAC4890ED18
:103C0000011A70EE810AB44890ED001A70EEC10AF4
:103C1000B0EE600A04F05CF8AE4880ED010AAB48F3
:103C2000D0ED020AA24890ED021A70EE810AA44873
:103C300090ED001A70EEC10AB0EE600A04F048F888
:103C4000A44880ED020A90ED000AB5EEC00AF1EE3C
:103C500010FA02DD90ED000A04E09E4890ED000AA3
:103C6000B1EE400AF3EE0E0A80EE201A994880ED7C
:103C70002D1A90ED010AB5EEC00AF1EE10FA02DD40
:103C800090ED010A04E0934890ED010AB1EE400A7C
:103C9000F3EE0E0A80EE201A8E4880ED2E1A90ED7B
:103CA000020AB5EEC00AF1EE10FA02DD90ED020A4A
:103CB00004E0884890ED020AB1EE400AF3EE0E0AE5
:103CC00080EE201A834880ED2F1ADFED840A80EE03
:103CD000880AD0ED000A90ED031A70EEC10A90ED4B
:103CE000161AF2EE041A21EE211A60EE810A60EE35
:103CF000200A90ED2D1A9FED7A0ADFED7A1A01EE77
:103D0000810A20EE800A80ED0C0ADFED740A80EE55
:103D1000880AD0ED010A90ED041A70EEC10A90ED08
:103D20001A1AF2EE041A21EE211A60EE810A60EEF0
:103D3000200A90ED2E1A9FED6A0ADFED6A1A01EE55
:103D4000810A20EE800A80ED0D0ADFED640A80EE24
:103D5000880AD0ED020A90ED051A70EEC10A90EDC6
:103D60001E1AF2EE041A21EE211A60EE810A60EEAC
:103D7000200A90ED2F1A9FED5A0ADFED5A1A01EE34
:103D8000810A20EE800A80ED0E0A90ED170AD0ED30
:103D9000000A60EE200A90ED060A00EE880A80ED27
:103DA000060A90ED1B0AD0ED010A60EE200A90EDA4
:103DB000070A00EE880A80ED070A90ED1F0AD0ED91
:103DC000020A60EE200A90ED080A00EE880A80EDF3
:103DD000080A454890ED000AF6EE000A20EE200A97
:103DE000F3EE090A20EE200A3A4880ED090A3E481F
:103DF00090ED000AF6EE000A20EE200AF3EE090A22
:103E000020EE200A334880ED0A0A374890ED000A78
:103E1000F6EE000A20EE200AF3EE090A20EE200A50
:103E20002C4880ED0B0A90ED060AD0ED090AF1EE60
:103E3000600AB4EEE00AF1EE10FA04D290ED090A3D
:103E4000B1EE400A0FE0234890ED060AD0ED090AD2
:103E5000B4EEE00AF1EE10FA02DD90ED090A02E09C
:103E60001C4890ED060A1B4880ED060A90ED070AF3
:103E7000D0ED0A0AF1EE600AB4EEE00AF1EE10FAB3
:103E800004D290ED0A0AB1EE400A32E0114890EDFA
:103E9000070AD0ED0A0AB4EEE00AF1EE10FA25DDC9
:103EA00090ED0A0A25E00000AC0C00200000FA4367
:103EB000880E0020BC0400200000204200001643B1
:103EC000480000201F85EB51B81E0940940E0020C9
:103ED00044000020C40D0020400000200AD7A33B6E
:103EE0006666263F3333B33EC0040020624890ED3F
:103EF000070A614880ED070A90ED080AD0ED0B0A29
:103F0000F1EE600AB4EEE00AF1EE10FA04D290EDA0
:103F10000B0AB1EE400A0FE0574890ED080AD0EDC9
:103F20000B0AB4EEE00AF1EE10FA02DD90ED0B0A96
:103F300002E0514890ED080A4F4880ED080A90EDE4
:103F4000000ADFED4E0AB4EEE00AF1EE10FA02D2FA
:103F50009FED4A0A0FE0484890ED000ADFED480A5D
:103F6000B4EEE00AF1EE10FA02DD9FED450A02E040
:103F7000414890ED000A404880ED000A90ED010AAA
:103F8000DFED3E0AB4EEE00AF1EE10FA02D29FED48
:103F90003B0A0FE0384890ED010ADFED390AB4EE34
:103FA000E00AF1EE10FA02DD9FED350A02E0324838
:103FB00090ED010A304880ED010A90ED020ADFED34
:103FC0002F0AB4EEE00AF1EE10FA02D29FED2B0AAE
:103FD0000FE0294890ED020ADFED290AB4EEE00A6D
:103FE000F1EE10FA02DD9FED260A02E0224890ED84
:103FF000020A214880ED020A90ED000AD0ED0C0A79
:1040000030EE200AD0ED060A30EE200AD0ED150A77
:1040100020EE200A80ED120A90ED010AD0ED0D0A83
:1040200030EE200AD0ED070A30EE200AD0ED190A52
:1040300020EE200A80ED130A90ED020AD0ED0E0A60
:1040400030EE200AD0ED080A30EE200AD0ED1D0A2D
:1040500020EE200A80ED140A90ED000A80ED030A9C
:1040600090ED010A80ED040A90ED020A80ED050A48
:10407000BDEC0E8B10BD0000C40D00200000B4C2CA
:104080000000B442B7EE000A074880ED180AB7EE08
:10409000000A80ED1C0AB7EE000A80ED200A9FEDB1
:1040A000030A80ED300A7047000D0020CDCC4C3E55
:1040B00010B5044603E04FF47A7000F005F8201EB6
:1040C000A4F10104F7D110BD70B5044600F0BEFCA8
:1040D000054600BF00F0BAFC401BA042FAD370BDF9
:1040E00010B501F0E7FE10B101200149087010BDC4
:1040F0002005002010B5012000F0C2FC0448017822
:104100000448007801F044FCFDF758F910BD0000A8
:10411000B0040020B404002010B502F00BFD0448E8
:104120000078012801D102F00FF801F089FA10BDE2
:104130000800002010B52DED028B002000F0A0FC3F
:10414000B0EE408A00F082FC00EE100AB8EE400AA1
:10415000DFED430A80EE201A424880ED001AB0EEEF
:10416000480A05F04DFFB0EE480AFFF715F93E4842
:104170000078022805D13D48B0EE480A02F0F0FC74
:1041800004E03B48B0EE480A02F0EAFC3948006817
:10419000C8280CD2384890ED020ADFED380AB4EE98
:1041A000E00AF1EE10FA02DD0120354908703448CA
:1041B000007850B3304C94ED020ADFED320A30EE55
:1041C000200ABCEEC00A10EE103A94ED020ADFEDB0
:1041D0002D0A30EE200ABCEEC00A10EE102A94ED33
:1041E000020ADFED280A30EE200ABCEEC00A10EE0B
:1041F000101A94ED020ADFED230A30EE200ABCEE1D
:10420000C00A10EE100A02F07FF91B4890ED020A76
:10421000DFED1D0AB4EEE00AF1EE10FA0BD21B48F6
:104220000068401C1949086008460068C82802D97F
:104230000020134908700F480068401C0D490860B1
:1042400000F004FC00EE100AB8EE400ADFED040AAC
:1042500080EE201A034880ED011ABDEC028B10BDE0
:1042600000247449F00F002008000020AC0A002050
:10427000B80A0020F8040020AC0C00200000E14344
:10428000F60400200000FA430000E1C3FC04002013
:1042900010B512480078022803D1114801F024FE1D
:1042A00002E0104801F020FE04F0F0F90E4800682A
:1042B00020B90E480078401C0C4908700A48006874
:1042C000142802D9002009490870084800780528F8
:1042D00002DD00200649087010BD00000800002023
:1042E000AC0A0020B80A0020880600200205002041
:1042F000B004002010B52DED028B022000F0C0FBB1
:10430000B0EE408A00F0A2FB00EE100AB8EE400AC0
:10431000DFED250A80EE201A244880ED021A244899
:1043200090ED0A5AF0EE454A90ED095AB0EE454A32
:1043300090ED085AF0EE453A1E4890ED065AB0EE60
:10434000453A90ED055AF0EE452A90ED045AB0EE4C
:10435000452A90ED0C5AF0EE451A90ED0B5AB0EE4E
:10436000451A90ED0A5AF0EE450AB6EE005A28EECC
:10437000055AB0EE450A104A10491148FCF774FB83
:10438000B0EE480AFFF790FB00F060FB00EE100A69
:10439000B8EE400ADFED040A80EE201A034880EDF3
:1043A000031ABDEC028B10BD00247449F00F0020ED
:1043B0008C050020D8110020480000204400002077
:1043C0004000002010B52048007801283BD11F484C
:1043D000008800B21E490880FFF78CFE1A48B0F929
:1043E0000400022804DB002017498880FFF7A2FEA2
:1043F0001548B0F90600052804DB00201249C880E2
:10440000FFF778FF1048B0F908000A2804DB002005
:104410000D490881FFF764FE0B48B0F90A00142823
:1044200004DB002008494881FFF776FE0648B0F912
:104430000C00322804DB002003498881FFF728FFA5
:1044400000200149087010BDE00F00203C00002052
:10445000F404002002480068C0F30A4070470000DE
:1044600000F00A4010B50220FBF71EFF04F0E4F94B
:104470000B48C46904F00C0008B1022010BD0948C3
:1044800003F0C6F90220FBF70FFF04F0D5F904484A
:10449000C46904F00C0008B10220EFE70020EDE74A
:1044A00000F00A40005800F02DE9F04107460E46A2
:1044B000144600BF2C48856905F001000028F9D199
:1044C000B00929494860C6F383008860A40838E031
:1044D00026480068264908402649884206D12348D4
:1044E000006880B210B9304604F086F91E49386879
:1044F00048610A20FBF7D8FE00BF1B48856905F01C
:1045000001000028F9D105F0100078B117480068C3
:10451000174908401749884205D11448006880B2FD
:1045200008B904F04DF92846BDE8F0813F1D641E2E
:104530003CB10D48806820B90B484068401C0A49CE
:104540004860002CC4D1094800680949084009495D
:10455000884205D10548006880B208B904F030F9F6
:1045600001488069E0E7000000F00A4000E00F40E9
:104570000000FF700000051010B58B090B4C636044
:10458000C1F38303A36092080DE0084B5B690360ED
:10459000001D521E3AB1054B9B6823B9034B5B6863
:1045A0005B1C024C6360002AEFD110BD00F00A4092
:1045B000024800680004800B7047000000F00A40C9
:1045C00070B50A4803F00AF9FFF74CFFFFF7F0FF58
:1045D0000446214606A004F05FF9FFF73BFF0546BD
:1045E000294609A004F058F970BD0000005800F0F9
:1045F000454550524F4D2053697A653A2025642035
:1046000062797465730A0000454550524F4D20424F
:104610006C6F6B20436F756E743A2025640A00003E
:1046200070B505460C461646002000EB8410044980
:1046300008603246084601682846FFF79DFF70BDB6
:104640007406002070B505460C461646002000EBA7
:104650008410064908603246084601682846FFF77C
:1046600023FF08B1012070BD0020FCE77006002088
:104670000348006840F4700001490860704700007A
:1046800088ED00E00348006840F0404001490860C0
:104690007047000034EF00E0024908700021024A30
:1046A00011807047820400208A0400203048D0ED39
:1046B000020A9FED301AF4EEC10AF1EE10FA3BD275
:1046C000D0ED030A9FED2B1AF4EEC10AF1EE10FAB9
:1046D00029D2D0ED010A9FED281AF4EEC10AF1EEBD
:1046E00010FA2CDDD0ED000A9FED231AF4EEC10A7A
:1046F000F1EE10FA23DD2148B0F90000401CF0B1C2
:104700001E48B0F9000000EE900AF8EEE00A9FEDB6
:104710001C1A41EE000AFDEEE00A10EE900A00B20B
:10472000164908800BE01548B0F90000401C30B96C
:1047300000201249088002E00020104908800F483C
:10474000B0F90000B0F5FA6F10DD4FF0FF300B4903
:1047500008800C48007830B901200A49087002200E
:104760000949487002E000200649087070470000BF
:10477000AC0C00200000C8C30000C843B2040020F5
:1047800000803B45B0040020D811002002F0010356
:104790001BB1D0F800340B4302E0D0F800348B4357
:1047A000C0F8003402F002031BB1D0F820340B43F0
:1047B00002E0D0F820348B43C0F820347047F0B5C5
:1047C000002416E00125A5400D4085B1D0F8C45F56
:1047D00067000326BE40B543C0F8C45FD0F8C45F8D
:1047E0006700C2F34116BE403543C0F8C45F651C84
:1047F000ECB2082CE6DB02F001051DB1D0F8005543
:104800000D4302E0D0F800558D43C0F8005502F08A
:1048100002051DB1D0F804550D4302E0D0F804554F
:104820008D43C0F8045502F004051DB1D0F80855B9
:104830000D4302E0D0F808558D43C0F8085502F04A
:1048400008051DB1D0F818550D4302E0D0F81855F1
:104850008D43C0F8185502F010051DB1D0F83C5535
:104860000D4302E0D0F83C558D43C0F83C5503F0B1
:1048700001051DB1D0F80C550D4302E0D0F80C55E0
:104880008D43C0F80C5503F002051DB1D0F810554A
:104890000D4302E0D0F810558D43C0F8105503F0D9
:1048A00004051DB1D0F814550D4302E0D0F814559D
:1048B0008D43C0F8145503F008051DB1D0F81C5500
:1048C0000D4302E0D0F81C558D43C0F81C5503F48D
:1048D00000751DB1D0F844550D4302E0D0F84455A1
:1048E0008D43C0F8445503F440751DB1D0F84055D0
:1048F0000D4302E0D0F840558D43C0F840551BB938
:10490000D0F828550D4302E0D0F828558D43C0F863
:104910002855F0BD10B50146C1F307400F4BDB6EC3
:1049200001248440234033B1012303EB40030C4CAA
:1049300054F8230003E04300094C54F82300C1F36A
:104940000722D0F82C350F249440A34301F00F0424
:1049500094402343C0F82C3510BD000000E00F4008
:10496000BCB000000246002000EB810010587047E8
:1049700030B504460D46002229462046FFF706FFC3
:104980000823012229462046FFF719FF30BD30B524
:1049900004460D460823012229462046FFF70FFF53
:1049A000012229462046FFF7F1FE30BD30B504460E
:1049B0000D46022229462046FFF7E8FE0923012280
:1049C00029462046FFF7FBFE30BD30B504460D46B4
:1049D000022229462046FFF7D9FE08230122294654
:1049E0002046FFF7ECFE30BD30B504460D460222EE
:1049F00029462046FFF7CAFE082301222946204601
:104A0000FFF7DDFE30BD30B504460D4602222946D3
:104A10002046FFF7BBFE0823012229462046FFF768
:104A2000CEFE30BD30B504460D4602222946204652
:104A3000FFF7ACFE0823012229462046FFF7BFFE00
:104A400030BD002303EB8103C250704770B50B48A3
:104A5000046802F064FF064602F06BFF361A4FF45A
:104A60007A70464302F05BFFB6FBF0F004EB4401C2
:104A7000C1EBC41100EBC105284670BD2800002021
:104A800010B5044604EB44001B4901EB800090ED97
:104A9000000A04EB440001EB800080ED010AFFF7FF
:104AA000D5FF00EE100AB8EE400ADFED140A80EEE2
:104AB000201A04EB4400104901EB800080ED001A3D
:104AC00004EB440001EB800090ED000A04EB44008D
:104AD00001EB8000D0ED010A30EE600A04EB4400E7
:104AE00001EB800080ED020A04EB440001EB800042
:104AF00090ED020A10BD0000EC0A00200024744969
:104B000010B52DED048BF0EE408AB0EE608A7E4841
:104B1000007810B101287DD11AE07C4890ED060A9A
:104B2000DFED7B0AB4EEE00AF1EE10FA03DD0120BE
:104B3000754908700BE077480088401C80B27549C1
:104B40000880B0F5FA7F02DD01206F490870D7E0D8
:104B50009FED710A28EE800AF7EE000A80EE801AB7
:104B6000B7EE000A31EE000AB7EE001AC1EE000AF5
:104B70006A4890ED020A654890ED061A20EE010A97
:104B8000664890ED001A6148D0ED041A01EE210A42
:104B9000624890ED011A5D48D0ED051A01EE210A38
:104BA0009FED5F1A30EE410A5E4890ED001A30EE3C
:104BB000411A90ED000A00EE810A80ED000A9FED97
:104BC0005A0A28EE800AF7EE000A80EE801AB7EE45
:104BD000000A31EE000AF7EE000A80EE801A9FED1F
:104BE000530A78EE400A524890ED000ADFED511A60
:104BF00011EEA00AD0ED000A41EE000AC0ED000A55
:104C00004D48D0ED000AB2EE041A60EE810AB0EE13
:104C1000600A00E073E0494B494A6421494801F0C9
:104C20009BF949480078012828D148480078012894
:104C300057D1DFED3E0A78EE600AB0EE600ADFED94
:104C4000440A05F0ADFFF1EE000A20EE200AB0EEB6
:104C5000409A3A48D0ED001AB0EE491AF0EE480AF0
:104C60009FED3C0A04F088FE002038490870F0EE01
:104C7000480A9FED380AFEF737FB32E032480078E9
:104C800002282ED134480078401C33490870084669
:104C900000780A2190FBF1F201FB12002E49087006
:104CA0000846007888B92D4890ED000ADFED210A0A
:104CB00020EE200AB0EE401A2948D0ED001AF0EE9E
:104CC000480A9FED240A04F057FE2648007840B9B0
:104CD000F0EE480A9FED240A03F01CFAFF20214958
:104CE00008701948007830B1204890ED040A204837
:104CF00080ED000A02E01E4880ED008A00E000BF5F
:104D000000BFBDEC048B10BD48050020D811002069
:104D100000007A454A05002034337B42280B0020EE
:104D2000000080450C050020C3F5C83F0000FA4391
:104D300044050020CDCCCC3E2C06002004050020EC
:104D40001005002024100020B404002020050020BD
:104D5000000048420AD7A33C4C0500204005002033
:104D60003805002064050020CDCCCC3D0410002087
:104D7000080500202DE9F0478046894617461D4664
:104D80004FF0010A17B90020BDE8F087012F36D196
:104D900000224146504800F09FF949464E4800F035
:104DA00065F903214C4800F05CF94FF4FA5404E033
:104DB000641E14B94FF0000A04E0474800F048F9B7
:104DC0000028F5D100BF01224146434800F084F994
:104DD0000721414800F045F94FF4FA5404E0641EFD
:104DE00014B94FF0000A04E03B4800F031F9002804
:104DF000F5D100BF384800F036F9287069E000228C
:104E00004146354800F068F94946334800F02EF92C
:104E10000321314800F025F94FF4FA5404E0641EF0
:104E200014B94FF0000A04E02B4800F011F90028F3
:104E3000F5D100BF01224146274800F04DF90B2172
:104E4000254800F00EF94FF4FA5404E0641E14B93A
:104E50004FF0000A04E0204800F0FAF80028F5D1ED
:104E600000BF1D4800F0FFF82870012617E0092157
:104E7000194800F0F6F84FF4FA5404E0641E14B92F
:104E80004FF0000A04E0144800F0E2F80028F5D1E1
:104E900000BF114800F0E7F8A855701CC6B2781E94
:104EA000B042E4DC05210C4800F0DBF84FF4FA5482
:104EB00004E0641E14B94FF0000A04E0064800F054
:104EC000C7F80028F5D100BF034800F0CCF8A8557A
:104ED00000BF504658E700000010024070B504467D
:104EE0000E4600222146134800F0F6F831461148DC
:104EF00000F0BCF807210F4800F0B3F800BF0D48E0
:104F000000F0A6F80028FAD101222146094800F055
:104F1000E3F80721074800F0A4F800BF054800F0B7
:104F200097F80028FAD1034800F09DF8C5B228464A
:104F300070BD0000001002402DE9F0470746894689
:104F4000164698464FF0010A16B90020BDE8F087D2
:104F500000223946244800F0BFF84946224800F0B4
:104F600085F80321204800F07CF84FF4FA5404E05F
:104F7000641E14B94FF0000A04E01B4800F068F802
:104F80000028F5D100BF002518E018F805101648D4
:104F900000F06CF80121144800F063F84FF4FA5463
:104FA00004E0641E14B94FF0000A04E00E4800F05B
:104FB0004FF80028F5D100BF681CC5B2B542E4DB4C
:104FC0000421094800F04DF84FF4FA5404E0641E3F
:104FD00014B94FF0000A04E0034800F039F8002843
:104FE000F5D100BF5046B1E70010024070B504464D
:104FF0000E46154600222146144800F06DF8314651
:10500000124800F033F80321104800F02AF800BFDE
:105010000E4800F01DF80028FAD129460B4800F090
:1050200025F80121094800F01CF800BF074800F0EE
:105030000FF80028FAD10421044800F012F800BF4C
:10504000024800F005F80028FAD170BD00100240B7
:105050000146486800F0010008B1012070470020B7
:10506000FCE741607047014688687047816070477F
:10507000016A41F0100101627047000070B50346FB
:105080000C4616461846FFF7F3FF012E01D10F4AD2
:1050900000E00F4A142000FB0240401E02EB820198
:1050A0008900B0FBF1F0451EDD60D3F8C00F00F0C1
:1050B000010048B107482044401E0649B0FBF1F00A
:1050C000451E45F08000D86070BD0000801A0600C3
:1050D000A08601008047370142EA41030360704720
:1050E00010B580216B2004F041FA0120FEF7E0FFAB
:1050F0000321682004F03AFA0120FEF7D9FF0121CC
:105100006B2004F033FA0A20FEF7D2FF6B20FEF783
:1051100037F9012801D0012010BD00216C2004F0D6
:1051200025FA0A20FEF7C4FF6C20FEF729F908B122
:105130000120F1E70021372004F018FA0A20FEF7D9
:10514000B7FF3720FEF71CF908B10120E4E7002182
:10515000192004F00BFA0A20FEF7AAFF1920FEF727
:105160000FF908B10120D7E703211A2004F0FEF956
:105170000A20FEF79DFF1A20FEF702F9032801D04E
:105180000120C9E718211B2004F0F0F90A20FEF7DE
:105190008FFF1B20FEF7F4F8182801D00120BBE791
:1051A00010211C2004F0E2F90A20FEF781FF1C20E8
:1051B000FEF7E6F8102801D00120ADE703211D20FD
:1051C00004F0D4F90A20FEF773FF1D20FEF7D8F88B
:1051D000032801D001209FE77520FEF7D1F8094987
:1051E00008707520FEF7CCF8122809D07520FEF75C
:1051F000C7F80446214604A003F04EFB01208BE7CC
:10520000002089E77105002036446F665F53656EA4
:105210007365725F69643A30782578210A0000006E
:1052200010B5124802F0DAFA114802F0D7FA41F646
:105230000300FFF76FFB41F60340FFF76BFB802194
:105240004FF04020FFF7B2FB40214FF04020FFF726
:10525000BCFB02F06DF90446012221460548FFF728
:105260000DFF0448FFF704FF10BD0000012000F00F
:10527000000800F00010024010B5BB48007800287C
:105280007ED0BA48B0F90000002803DDB748B0F975
:10529000000003E0B548B0F900004042B0F5C87F17
:1052A0006FDAB248B0F90200002803DDAF48B0F968
:1052B000020003E0AD48B0F902004042B0F5C87FFB
:1052C000EEDAAA48B0F90400002803DDA748B0F9D7
:1052D000040003E0A548B0F904004042B0F5C87FDF
:1052E000DEDAA248B0F9000000EE100AB8EEC00AFB
:1052F0009F48D0ED000AB4EEE00AF1EE10FA07DDA7
:105300009A48B0F9000000EE100AB8EEC00A02E0B8
:10531000974890ED000A964880ED000A9348B0F94E
:10532000020000EE100AB8EEC00A9148D0ED010A62
:10533000B4EEE00AF1EE10FA07DD8C48B0F9020095
:1053400000EE100AB8EEC00A02E0894890ED010AAA
:10535000874880ED010A8548B0F9040000EE100A84
:10536000B8EEC00A8248D0ED020AB4EEE00AF1EECF
:1053700010FA0ADD7D48B0F9040000EE100A01E0E1
:10538000F0E0E2E0B8EEC00A02E0794890ED020AEF
:10539000774880ED020A7548B0F9000000EE100A67
:1053A000B8EEC00A7348D0ED000AB4EEE00AF1EEA0
:1053B00010FA07D26D48B0F9000000EE100AB8EEFE
:1053C000C00A02E06B4890ED000A6A4880ED000ACE
:1053D0006648B0F9020000EE100AB8EEC00A65484F
:1053E000D0ED010AB4EEE00AF1EE10FA07D25F4800
:1053F000B0F9020000EE100AB8EEC00A02E05D4803
:1054000090ED010A5B4880ED010A5848B0F90400AC
:1054100000EE100AB8EEC00A5648D0ED020AB4EE0B
:10542000E00AF1EE10FA07D25048B0F9040000EE9D
:10543000100AB8EEC00A02E04E4890ED020A4D484C
:1054400080ED020A4C480088B0F57A7F7DD148484B
:1054500090ED000A4748D0ED000A30EE200AF6EE43
:10546000000A20EE200ABDEEC00A10EE100A00B2BB
:1054700000EE100AB8EEC00A3C4880ED020A3C4833
:1054800090ED010A3B48D0ED010A30EE200AF6EE1D
:10549000000A20EE200ABDEEC00A10EE100A00B28B
:1054A00000EE100AB8EEC00A304880ED030A30481A
:1054B00090ED020A2F48D0ED020A30EE200AF6EEF7
:1054C000000A20EE200ABDEEC00A10EE100A00B25B
:1054D00000EE100AB8EEC00A244880ED040A244801
:1054E00090ED000A2348D0ED000A30EE600A234810
:1054F00080ED000A1E4890ED010A1E48D0ED010A19
:1055000030EE600A1D4880ED010A194890ED020A4C
:105510001848D0ED020A30EE600A184880ED020A01
:1055200090ED000AD0ED010A80EE201A0F4880EDC0
:10553000061A124890ED000AD0ED020A80EE201AF9
:105540000A4880ED071A083000E006E001F0A2FFEB
:105550000020094908800449087007480088401C59
:105560000549088010BD0000D50500208C050020ED
:10557000D8050020E4050020F00500207C13002061
:1055800038B500210C20FFF7A9FC0546102D4ED19F
:1055900001202A4908700090012269460B2003F07F
:1055A00003F904E00B210C20FFF798FC044604F0FB
:1055B00001000028F6D10090012269460A2003F07C
:1055C000F3F80520FEF774FD0020009001226946E3
:1055D0000B2003F0E9F80520FEF76AFD2420009077
:1055E00001226946412003F0DFF80520FEF760FD47
:1055F000C020009001226946422003F0D5F8052022
:10560000FEF756FD00200090012269460C2003F0B1
:10561000CBF80520FEF74CFD0120009001226946E1
:105620000A2003F0C1F80520FEF742FD02E0002049
:105630000249087003F0BEFF38BD0000D405002009
:1056400070B52DED0E8B84B0002008EE100A08EE28
:10565000900A09EE100A002400250026019002900D
:10566000062201A9032001F021FD01287ED16A480C
:10567000007800287AD069480068401C67490860B3
:105680009DF804009DF8051040EA012000B208EEE4
:10569000100A9DF806009DF8071040EA012000B2AC
:1056A00008EE900A9DF808009DF8091040EA0120D4
:1056B00000B209EE100A5A4890ED000AF8EEC80A46
:1056C00020EE200AD0ED010AB8EEE81A00EE810AB9
:1056D000D0ED020AB8EEC91A00EE810ABDEEC00A8A
:1056E00010EE100A04B24E4890ED030AF8EEC80A14
:1056F00020EE200AD0ED040AB8EEE81A00EE810A86
:10570000D0ED050AB8EEC91A00EE810ABDEEC00A56
:1057100010EE100A05B2424890ED060AF8EEC80AEB
:1057200020EE200AD0ED070AB8EEE81A00EE810A52
:10573000D0ED080AB8EEC91A00EE810ABDEEC00A23
:1057400010EE100A06B22046FAF7CAFF41EC1D0B14
:105750002846FAF7C5FF41EC1E0BB0EE4D1AF0EEED
:105760006D1AB0EE4E0AF0EE6E0A00E04FE003F064
:10577000D7FBB0EE40CAF0EE60CA9FED2A0B53ECA7
:10578000102B51EC1C0BFAF7CAFE41EC1B0B9FEDE2
:10579000270B53EC102BFAF71BFE41EC1A0BFAF710
:1057A000C3FF244908602448048045808680B0F9FE
:1057B000000000EE100AB8EEC00A1F48D0ED020A41
:1057C00030EE600A80ED080AB0F9020000EE100A1F
:1057D000B8EEC00A1848D0ED030A30EE600A80ED3A
:1057E000090AB0F9040000EE100AB8EEC00A124827
:1057F000D0ED040A30EE600A80ED0A0AFFF73CFDA6
:1058000001200390012203A90A2002F0CDFF04B079
:10581000BDEC0E8B70BD0000D4050020C405002037
:1058200058130020775AF01ADCA54C400000000005
:1058300000806640D00500208C050020042806D199
:105840001949096841F48031174A11602BE0052895
:1058500006D11549096841F40031134A116022E06C
:10586000062806D11049096841F480210E4A1160CA
:1058700019E00F2808D14FF0E021096941F0020139
:105880004FF0E02211610EE010280CD3A0F11001BE
:1058900001F01F0201219140A0F110025209034BB7
:1058A00053F822201160704724ED00E008B2000098
:1058B00010B5FAF7E5FC08B1012010BD0020FCE7A7
:1058C00010B5FAF7E4FC08B1012010BD0020FCE798
:1058D00030B502460B4C24680B4DAC420ED0094C3F
:1058E0002368002005E053F82040074D45F820408C
:1058F000401C9B28F7D3044C024D2C60024C44F80A
:10590000221030BD08ED00E00008002010B51C4852
:1059100001F064FF1A48001D01F060FF40211948A2
:10592000FFF735F8402211461648FFF78AF8802124
:105930001448FFF72CF8802211461248FFF781F82F
:1059400010211148FFF723F8102211460E48FFF7E7
:1059500078F80E48006820F010000B49C1F8FC03ED
:105960000848D0F8FC0320F080000649C1F8FC0389
:105970000846D0F8FC0320F04000C1F8FC0310BD3D
:10598000010800F00050004000500240FC5302406B
:1059900010B53E4A12683E4B1A6021B94FF4C872E6
:1059A0003C4B1A6004E0012902D16422394B1A6091
:1059B000374A1268374B1B68B2FBF3F403FB14221F
:1059C0002AB9354A127882F00102334B1A70E8B9CD
:1059D000314A127822B1314A126842F0800203E063
:1059E0002E4A126822F080022C4B1A602C4AD2F800
:1059F000FC2322F010022A4BC3F8FC23294AD2F8D8
:105A0000FC2322F04002254B1A603EE001281DD104
:105A1000214A127822B1214A126842F0400203E082
:105A20001E4A126822F040021C4B1A601C4AD2F82F
:105A3000FC2322F010021A4BC3F8FC23194AD2F8B7
:105A4000FC2322F08002154B1A601EE002281CD1B4
:105A5000114A127822B1144A126842F0100203E08F
:105A6000114A126822F010020F4B1A600D4AD2F848
:105A7000FC2322F040020B4BC3F8FC231A46D2F859
:105A8000FC2322F08002054B1A6010BD2800002084
:105A9000900600209406002098060020FC53004049
:105AA0000050024000500040FC5302401548C0899D
:105AB000401C1449C88108468088401C00B2888078
:105AC0000846C088401C00B2C88008460089401CB7
:105AD00000B2088108464089401C00B2488108464F
